:0400000081EF04F098
:100600000041542B43574A41503D224A5344204510
:100610004C454354524F4E49435320222C224750BD
:1006200053424F585F6A736440282A265E3534333C
:100630003231220D0A00474554202F7570646174D1
:10064000653F6B65793D4B4A5853324C48363145CE
:1006500052444A444150266669656C64313D3639DE
:100660000D0A0041542B43495053544152543D34D8
:100670002C22544350222C223138342E3130362E45
:100680003135332E313439222C38300D0A004154A3
:100690002B4349505345525645523D312C38300D6D
:1006A0000A0041542B43495053454E443D342C34A9
:1006B000340D0A0041542B4349504D55583D310DDE
:1006C0000A0041540D0A0000000E0F013A6F000E9F
:1006D000946E000E0E6EC20E0F6E010E106E000EA6
:1006E000116E44EC04F0150E156E4B0E146EBE0E1A
:1006F000E82EFED7142EFCD7152EFAD700D0C20E46
:10070000016E060E026E6BEC04F0150E156E4B0EAC
:10071000146EBE0EE82EFED7142EFCD7152EFAD777
:1007200000D0010E016E060E026E6BEC04F0CB0ED3
:10073000156EEC0E146E840EE82EFED7142EFCD728
:10074000152EFAD700D0C20E016E060E026E6BECAB
:1007500004F0290E156E960E146E7F0EE82EFED74D
:10076000142EFCD7152EFAD700F0B40E016E060E2B
:10077000026E6BEC04F0150E156E4B0E146EBE0E71
:10078000E82EFED7142EFCD7152EFAD700D08E0EE9
:10079000016E060E026E6BEC04F0150E156E4B0E1C
:1007A000146EBE0EE82EFED7142EFCD7152EFAD7E7
:1007B00000D0630E016E060E026E6BEC04F03D0E6F
:1007C000156EE10E146E400EE82EFED7142EFCD7E7
:1007D000152EFAD7A20E016E060E026E6BEC04F017
:1007E000150E156E4B0E146EBE0EE82EFED7142E8F
:1007F000FCD7152EFAD700D0360E016E060E026E0B
:100800006BEC04F0A0D7000E096E000E0A6E000E0D
:100810000B6E000E0C6E0550061007100810D8B4B1
:100820002AD0010E0D6E06D0D89005360636073652
:1008300008360D2A08AEF8D7D89009360A360B3696
:100840000C360550015C06500258075003580850FA
:100850000458D8A009D00550015E0650025A07502E
:10086000035A0850045A0980D890083207320632D9
:1008700005320D2EE1D709C001F00AC002F00BC00D
:1008800003F00CC004F01200000EAC6E000EAB6E54
:10089000AC98B886AB8EAB88AC84AC8A000E016E87
:1008A000090E026E3D0E036E000E046E0EC005F0C2
:1008B0000FC006F010C007F011C008F003EC04F000
:1008C000FF0E0124126EFF0E0220136E1350B06E45
:1008D00012C0AFFF12000BD09EA8FED701C0F6FFDA
:1008E00002C0F7FF0800F5CFADFF014A022A01C0A0
:1008F000F6FF02C0F7FF0800F5500009D8B4120057
:10090000EBD7000EF86E060EF76E000164EF03F0F1
:020000040020DA
:08000000FFFFFFFFFFFFFFFF00
:020000040030CA
:0E000000FF031F3CFFB580FF0FC00FE00F4055
:00000001FF
